:020000040800F2
:1000000068B90020590200087D5D00086B500008A7
:10001000795D000835180008B1B90008000000003B
:10002000000000000000000000000000A101000826
:100030002B19000800000000F501000811780008E5
:1000400073020008730200087302000873020008BC
:1000500073020008730200087302000873020008AC
:10006000730200087302000873020008730200089C
:10007000730200087302000873020008730200088C
:10008000730200087302000873020008730200087C
:10009000730200087302000873020008730200086C
:1000A000730200087302000873020008730200085C
:1000B000ED7B0008057C00081D7C00087302000829
:1000C000730200087302000873020008730200083C
:1000D00073020008018700081D8700089D8B000837
:1000E0007302000873020008730200084D7C0008C8
:1000F000730200087302000873020008730200080C
:100100007302000873020008357C000873020008BF
:1001100073020008CD820008730200087302000811
:1001200073020008730200087302000873020008DB
:1001300073020008730200087302000873020008CB
:100140007302000873020008730200085D63000870
:1001500073020008730200087302000873020008AB
:10016000730200087302000873020008730200089B
:10017000730200087302000873020008730200088B
:100180007302000873020008DFF810D000F004FCCE
:10019000004800470DE50008AFF3008068B9002073
:1001A0002A4B19680868B0E8F04F80F30988BFF35C
:1001B0006F8F4FF0000080F311887047000000003F
:1001C00006480068006880F3088862B661B6BFF32D
:1001D0004F8FBFF36F8F00DF00BF00BF08ED00E05F
:1001E000DFF80C00016841F470010160704700BF46
:1001F00088ED00E0EFF30980BFF36F8F134B1A68AF
:100200001EF0100F08BF20ED108A20E9F04F10609B
:1002100008B44FF0500080F31188BFF34F8FBFF345
:100220006F8F11F0BBFB4FF0000080F3118808BC0A
:1002300019680868B0E8F04F1EF0100F08BFB0EC66
:10024000108A80F30988BFF36F8F70475001002038
:10025000EFF30580704700000648804706480047D6
:10026000FEE7FEE7FEE7FEE7FEE7FEE7FEE7FEE766
:10027000FEE7FEE7217800088901000840EA010353
:100280009B0703D009E008C9121F08C0042AFAD24C
:1002900003E011F8013B00F8013B521EF9D2704710
:1002A000D2B201E000F8012B491EFBD270470022B8
:1002B000F6E710B513460A4604461946FFF7F0FF65
:1002C000204610BD2DE9FE4F804681EA0300C00F95
:1002D0000C46009021F0004123F00045B8EB0200ED
:1002E000A94105D24046214690461C460B4602468F
:1002F00023F00040104347D0270DC7F30A00C3F393
:100300000A510290401A019040286BDAC3F313009F
:1003100040F4801B0098924620B10023D2EB030AE0
:1003200063EB0B0B01985946C0F14002504600F0B8
:10033000E5F906460D4650465946019A00F0EDF99A
:1003400010EB08006141002487EA115284EAE77348
:100350001A4340D0009A62B3019A012A4FEA075229
:1003600015DC001B61EB02014FF0004202EA07526C
:10037000CDE90042001C41F5801132462B4600F0C9
:1003800024FA03B0BDE8F08F40462146F9E7001B90
:1003900061EB0201001C41F5801300185B4120183D
:1003A000A2F5001747EB030140EAD570B6196D417D
:1003B00011E06D084FEA360645EAC0754FEA07526C
:1003C000001B61EB0201001C41F5801149084FEA56
:1003D00030000019514132462B4603B0BDE8F04FC2
:1003E00000F0E4B90098012240000023D0EB0202A3
:1003F00063EBE073009821464FEAE074B8EB00002D
:1004000061EB0401E9E783F000435BE781F0004121
:1004100058E72DE9FE4F81EA030404F0004421F07F
:10042000004100944FF0000B23F0004350EA010418
:100430005ED052EA03045BD0C3F30A54C1F30A55F9
:100440002C44A4F2F3340194A0FB0254C1F3130131
:1004500041F48011C3F3130343F4801301FB0244FE
:1004600000FB034E840A970A44EA815447EA835703
:10047000A4FB076802958D0A05FB07854FEA932CBC
:1004800004FB0C542705029D4FEA065847EA16372D
:10049000B5EB08056EEB070C870E920E47EA811745
:1004A00042EA8312A7FB0201B6EB0B0164EB0004E6
:1004B0002B0D43EA0C335E1844EB1C50DA465146D0
:1004C000E7FB0201C5F313044FEA0B3343EA14536D
:1004D0004FEA0432019C43EA0603A4F10C0402949F
:1004E000009CCDE900B400F070F903B0BDE8F08FD6
:1004F00000200146F9E72DE9F04D81EA030404F0FC
:10050000004B21F0004514464FF0000A23F0004153
:1005100050EA050220D054EA01021DD0C5F30A5763
:100520000246C5F31303C1F31300C1F30A5640F4A6
:10053000801543F48013A7EB0608101BD64608F27B
:10054000FD3873EB050002D308F1010801E09218B1
:100550005B41B8F1000F03DA00200146BDE8F08DE1
:1005600000204FF48011064684460EE0171B73EB03
:10057000050705D3121B63EB050306434CEA010C88
:1005800049084FEA300092185B4150EA0107EDD16B
:1005900052EA030012D082EA040083EA050108430C
:1005A00005D0101BAB4106D20122002306E0002239
:1005B0004FF0004302E06FF0010253101AEB060007
:1005C0004CEB085110EB0A0041EB0B01BDE8F04D7C
:1005D00000F0ECB80EB5C10F80EAE0700844CA071D
:1005E000002140F233438DE80E000A460B4600F02E
:1005F000ECF803B000BD0EB540F23341029100218A
:10060000CDE900110A460B4600F0DFF803B000BD4B
:1006100000F0004230F000400AD0C10D01F56071D9
:10062000C0F3160042EA0151C20840071143704767
:1006300000200146704701F0004330B421F0004132
:1006400050EA010206D00A0DA2F56072C1F313014F
:10065000002A02DC30BC00207047440F44EAC10489
:10066000C100E01830BC00EBC25000F068B830B5F3
:100670000B46014600202022012409E021FA02F560
:100680009D4205D303FA02F5491B04FA02F52844FA
:10069000151EA2F10102F1DC30BD2DE9F05F054627
:1006A000002092469B4688460646814640241BE031
:1006B000284641464746224600F080F953465A46AE
:1006C000C01A914110D311461846224600F016F880
:1006D0002D1A67EB01084F4622460120002100F049
:1006E0000DF817EB00094E41201EA4F10104DFDCD8
:1006F000484631462A464346BDE8F09F202A04DB9F
:10070000203A00FA02F1002070479140C2F1200324
:1007100020FA03F3194390407047202A06DBCB17D9
:10072000203A41FA02F043EAE07306E041FA02F3AC
:10073000D040C2F120029140084319467047002979
:10074000A8BF7047401C490008BF20F00100704757
:1007500010B4B0FA80FC00FA0CF050EA010404BFB7
:1007600010BC704749B1CCF1200421FA04F411FA0D
:100770000CF118BF012121430843A3EB0C01CB1D51
:100780004FEA00614FEA102042BF002010BC7047C2
:1007900000EBC35010440029A4BF10BC7047401C9C
:1007A000490008BF20F0010010BC704710B5141EAE
:1007B00073F1000408DA401C41F1000192185B411A
:1007C0001A4301D120F0010010BD2DE9F04D9246F1
:1007D0009B4611B1B1FA81F202E0B0FA80F2203208
:1007E0009046FFF78BFF04460F4640EA0A0041EAB5
:1007F0000B0153465A46084313D0114653EA0100F1
:1008000019D0C8F14002504600F0D8F805460E460F
:10081000504659464246FFF771FF084305D0012074
:1008200004E020463946BDE8F08D0020054346EA45
:10083000E0762C4337430A986305E40AA0EB0800EE
:100840000022FD0A44EA47540A3002D5002001463E
:10085000E9E7010510196941DDE908450019694119
:10086000BDE8F04DA2E770B521F0004303430CD082
:10087000C1F30A550024D5EB040564EB0403D61735
:10088000AD1AB34102DB0020014670BD201841EBD8
:10089000025170BD2DE9F04D00231A461B1A8A4102
:1008A00003DB00200146BDE8F08DC1F30A52C1F31D
:1008B000130141F480154FF0000BD10702D100184D
:1008C0006D41521E0027044640F2FF11384601EBED
:1008D000620A3E468046024600204FF4801100F036
:1008E0006DF8C2197141BB1846EB0100B4EB030C63
:1008F00075EB000C04D3E41A65EB000517460E46B1
:10090000241908F101006D4180463428E3DDF9190E
:1009100046EB0600091BA84103D24FF0FF321346F5
:1009200001E0002213461BEB070046EB0A51BDE82D
:10093000F04DFFF73BBFC1F30A52C1F3130140F280
:10094000FF3341F480119A4202DA002001467047D9
:1009500040F233439A42A2F2334202DC524200F0A8
:100960002DB8FFF7CBBE000030B5041E71F10004B6
:1009700004DB4FF00044404264EB0101141E73F1AC
:10098000000405DB1C464FF00043524263EB0403B6
:10099000994208BF904230BD064C074D06E0E06822
:1009A00040F0010394E8070098471034AC42F6D3B6
:1009B000FFF7EEFB4051010860510108202A04DBDB
:1009C000203A21FA02F00021704721FA02F3D040C8
:1009D000C2F12002914008431946704770B5C1F337
:1009E0000A5201F000450024C1F3130140F2FF3325
:1009F00041F480119A4201DA002070BD40F2334385
:100A00009A42A2F2334203DC5242FFF7D7FF00E0E2
:100A100090402C43F1D0404270BD70B58C1810F856
:100A2000015B15F0070301D110F8013B2A1106D133
:100A300010F8012B03E010F8016B01F8016B5B1E4D
:100A4000F9D12B0705D40023521E0DD401F8013B28
:100A5000FAE710F8013BCB1A921C03E013F8015B94
:100A600001F8015B521EF9D5A142D8D3002070BD18
:100A700021B1826842F00102826003E0826822F0C4
:100A800001028260704700000021084A1168084A8C
:100A90001140D0E900231A4383681A43C3681A43FC
:100AA0001143044AC2F804137047000004230140B4
:100AB000E030FCFF002001400146C86C80B2704766
:100AC0000246002013680B400BB1012000E000201B
:100AD0007047000030B50246002000235068104CDB
:100AE00020400D790C6844EA05242043506090684A
:100AF0000C4C2040D1E903542C438D682C434D7994
:100B000044EA450420439060D06A20F470000C7DD4
:100B1000641EE4B2234340EA0350D06230BD0000BB
:100B2000FFFEFFFCFDF7FFC0F0B504460D460020B8
:100B30000021092D11DDE068A5F10A0606EB460744
:100B4000072606FA07F18843A5F10A0606EB4606D2
:100B500003FA06F10843E0600CE0206905EB450765
:100B6000072606FA07F1884305EB450603FA06F166
:100B700008432061072A0FDA606B561E06EB8607D2
:100B80001F2606FA07F18843561E06EB860605FA6D
:100B900006F10843606322E00D2A0FDA206BD61FAE
:100BA00006EB86071F2606FA07F18843D61F06EBD9
:100BB000860605FA06F10843206310E0E06AA2F118
:100BC0000D0606EB86071F2606FA07F18843A2F1F9
:100BD0000D0606EB860605FA06F10843E062F0BD55
:100BE000816841F08041816070470000FEB5AA48ED
:100BF000D0ED000A9FEDA91A9FEDA90A10EE810A17
:100C0000F3EE0B0A80EE201ABDEEC10A10EE106A58
:100C1000642E00DD6426A34890ED000ADFEDA20AF1
:100C200020EE200ABDEEC00A10EE104A002C00DAB9
:100C300064429E4890ED000ADFED9B0A20EE200AF8
:100C4000BDEEC00A10EE105A002D00DA6D42984831
:100C5000007808B9012000E0002095490870954807
:100C60000078012877D194480078062818D1934855
:100C700090ED000ABDEEC00A10EE103A904890EDDB
:100C8000000ABDEEC00A10EE102A8E4890ED000A50
:100C9000BDEEC00A10EE101A8BA00BF05BF9DCE081
:100CA00085480078052818D18B4890ED000ABDEEE4
:100CB000C00A10EE103A894890ED000ABDEEC00A55
:100CC00010EE102A864890ED000ABDEEC00A10EE24
:100CD000101A7DA00BF03EF9BFE077480078042899
:100CE00071D180480078022818D17F4890ED000A21
:100CF000BDEEC00A10EE103A7C4890ED000ABDEE41
:100D0000C00A10EE102A7A4890ED000ABDEEC00A23
:100D100010EE101A6CA00BF01DF99EE071480078DF
:100D2000032819D1734890ED000ABDEEC00A10EEF9
:100D3000103A714890ED000ABDEEC00A10EE102A7C
:100D40006E4890ED000ABDEEC00A10EE101A5EA0CB
:100D50000BF000F981E084E062480078042818D1A3
:100D6000674890ED000ABDEEC00A10EE103A6548E3
:100D700090ED000ABDEEC00A10EE102A624890ED18
:100D8000000ABDEEC00A10EE101A4FA00BF0E2F8F8
:100D900063E05E4890ED000ABDEEC00A10EE103A26
:100DA0005B4890ED000ABDEEC00A10EE102A5948CB
:100DB00090ED000ABDEEC00A10EE101A42A00BF032
:100DC000C9F84AE0FFE73C48007803282DD1524893
:100DD00090ED000ABDEEC00A5048D0ED000AFDEECD
:100DE000E00A4F4890ED001ABDEEC11A8DED001AD1
:100DF000CDED010A8DED020A4A4890ED000ABDEEE4
:100E0000C00A10EE103A484890ED000ABDEEC00A44
:100E100010EE102A454890ED000ABDEEC00A10EE13
:100E2000101A43A00BF096F817E0474890ED000A1F
:100E3000BDEEC00A10EE103A444890ED000ABDEE37
:100E4000C00A10EE102A424890ED000ABDEEC00A1A
:100E500010EE101A1CA00BF07DF800201549087048
:100E600019E01348007850B9E8B2E1B2EAB2CDE92E
:100E70000010E1B2334637A00BF06CF80BE0EBB298
:100E8000E2B2334890ED000ABDEEC00A10EE101A2F
:100E900035A00BF05FF8FEBD1800002000007A447A
:100EA00000401C46D8A700200000C842ECA7002044
:100EB000370300204F0200206002002004020020BF
:100EC00000020020680200207B4325643A25643A32
:100ED00025647D2400000000FC010020F8010020B2
:100EE00064020020CC010020B4000020B0000020EB
:100EF000AC000020A8000020A4000020A0000020DA
:100F0000C0000020BC000020B8000020CC00002061
:100F1000C8000020C4000020E4000020E000002001
:100F2000DC000020D8000020D4000020D0000020E9
:100F30007B4325643A25643A25643A25643A25645E
:100F40003A25647D240000002C02002028020020A5
:100F5000D40100207B4125643A25643A25643A2572
:100F6000643A25647D2400007B4225643A25643A76
:100F700025647D240000000001462B2913D136484A
:100F80000078401C344A10700020344A10703448F5
:100F90000078401C324A107032480078401C314AB8
:100FA0001070012070472C480078002852D02B4840
:100FB0000078401C294A107027480078401E2A4AB1
:100FC00052F82000254A1278805C884212D12448C9
:100FD0000078401C224A107010460078222807D161
:100FE000002010701F4A10701B4A10701B4A1070AE
:100FF0000120D7E718480078401E1C4A52F820000C
:10100000164A1278805C884207D01348007801287D
:1010100016D1144800780D2812DB12480078401CC5
:10102000104A1070104600782C2807D1002010704C
:101030000B4A1070084A1070084A10700120B1E77E
:101040000020074A1070074A1070034A1070034AC4
:101050001070A7E70020A5E7110100201001002073
:1010600012010020130100201401002020010020A3
:1010700000B58DB00121022005F0F6FE0121080225
:1010800005F032FF02200B9003208DF83000002085
:101090008DF833000BA9154801F0EAFB0121080285
:1010A00005F032FF00214FF4807005F02DFF002085
:1010B00007900A9009904FF40030089007A8FFF7B6
:1010C000E3FC002001908DF808008DF809000390E2
:1010D000059001208DF8180001A90548FFF7FAFCDA
:1010E00001210348FFF7C4FC0DB000BD000402401D
:1010F0000020014000B58DB00121022005F0B4FEB2
:101100000121480205F0F0FE01200B9003208DF82C
:10111000300000208DF833000BA9154801F0A8FB22
:101120000121480205F0F0FE00214FF4007005F0A7
:10113000EBFE002007900A9009904FF400300890D1
:1011400007A8FFF7A1FC002001908DF808008DF89A
:1011500009000390059001208DF8180001A90548A9
:10116000FFF7B8FC01210348FFF782FC0DB000BD7A
:10117000000402400021014000B5B0EE401A30EEFC
:10118000C10A894880ED000A884890ED000A864827
:10119000D0ED001A30EE210A844880ED000A90ED6F
:1011A000000ADFED831AB4EEE10AF1EE10FA04DD75
:1011B0009FED7F0A80ED000A0DE07C4890ED000A6B
:1011C000DFED7C1AB4EEE10AF1EE10FA03D29FEDE6
:1011D000790A80ED000A78480078042830D17748F1
:1011E00090ED000A7048D0ED001A60EE211A9FEDD4
:1011F000742A81EE820A7348D0ED001A6B4890ED94
:10120000002A61EE821A9FED6E2AC1EE822A30EE2C
:10121000220A6548D0ED001A6B4890ED002A71EE65
:10122000C21A6A4890ED002A61EE821A9FED642A84
:10123000C1EE822A30EE220A654880ED000A99E06C
:101240005D480078022830D1624890ED000A564887
:10125000D0ED001A60EE211A9FED592A81EE820A24
:101260005D48D0ED001A514890ED002A61EE821AD7
:101270009FED532AC1EE822A30EE220A4A48D0ED71
:10128000001A514890ED002A71EEC21A534890EDB1
:10129000002A61EE821A9FED462AC1EE822A30EEC4
:1012A000220A4B4880ED000A64E043480078032896
:1012B00003D04148007805282AD1494890ED000A1A
:1012C0003948D0ED001A60EE211A9FED462A81EED2
:1012D000820A4548D0ED001A344890ED002A61EEAC
:1012E000821A9FED402AC1EE822A30EE220A2E4851
:1012F000D0ED001A344890ED002A71EEC21A3B4836
:1013000090ED002A02EE210A314880ED000A31E01A
:10131000374890ED000AB1EE400A2348D0ED001A9C
:1013200060EE211A9FED262A81EE820A3148D0ED27
:10133000001A1E4890ED002A61EE821A9FED202AC5
:10134000C1EE822A30EE620A1748D0ED001A1E481C
:1013500090ED002A71EEC21A274890ED002A61EE46
:10136000821A9FED132AC1EE822A30EE620A1848D3
:1013700080ED000A0C4890ED000A134880ED000A49
:101380001E4890ED000ABDEEC00A10EE100A06F0ED
:1013900075FF012804D19FED1A0A044880ED000A68
:1013A0000B4890ED000A00BDF0020020F80200207A
:1013B00000007A4400007AC4CC010020B80000206C
:1013C0000050C347C0000020FC020020BC000020E9
:1013D000F4020020AC000020B4000020B000002087
:1013E000A00000200000C842A8000020A4000020A7
:1013F000C4000020CC000020C800002018000020FD
:10140000000000001CB50DF04BF80190F3E10A213B
:1014100001A810F095F8F848406840F6B8318842C5
:1014200004DAF5484068401CF349486001F062FF67
:10143000F2480078401CC0B2F04908700A2806D172
:101440000020EF490870ED490870EE49086032202D
:101450000CF01AFE012802D0022847D119E0EA4810
:101460000078401CE849087008460078062802D138
:101470000CF0A0FF05E0E4480078052801D10CF04D
:101480009DFDE1480078062802DD0020DE49087055
:101490002CE0DD480078062810D1DC48007808B937
:1014A000012000E00020D949087008460078E0B922
:1014B0004FF4E161D648FEF7FAFE16E0D248007814
:1014C00018B1D148007801280FD1CE48006808B97A
:1014D000012000E00020CB4908600846006820B9E0
:1014E0004FF4E161CA48FEF7E2FE00BF00BFC94801
:1014F0000078C549097888420DD0C6480078401C5C
:10150000C449087004F082FCC2480078062802DD55
:101510000020C0490870BC480078062802D000208E
:1015200000F08AF9B848007810B901F041FA24E0D7
:10153000B5480078012802D105F026F91DE0B2482F
:101540000078022802D104F095F816E0AE48007841
:10155000032802D104F094F90FE0AB480078042886
:1015600002D104F0DFFA08E0A7480078052802D18C
:1015700001F0EEFB01E001F045FDA74890ED000A07
:10158000BDEEC00A10EE100A06F078FE002879D1F0
:10159000A24890ED021AF0EE410A90ED001AB0EE6A
:1015A000410A03F0EFFE00EE100AB8EEC00A9B48B5
:1015B00080ED010A9A4890ED021AF0EE410A90ED92
:1015C000001AB0EE410A03F035FF00EE100AB8EE43
:1015D000C00A934880ED010A924890ED021AF0EE9D
:1015E000410A90ED001AB0EE410A03F07BFF00EED5
:1015F000100AB8EEC00A8B4880ED010A8A4890EDC7
:10160000021AF0EE410A90ED001AB0EE410A03F022
:10161000C1FF00EE100AB8EEC00A834880ED010A4F
:1016200044F2740004F026FB80480078062828D293
:10163000DFE800F003294A6E91B600207A4C009052
:1016400094ED010ABDEEC00A10EE103A754C94ED0F
:10165000010ABDEEC00A10EE102A714C94ED010A89
:10166000B1EE400ABDEEC00A10EE101A6B4C94EDBC
:10167000010AB1EE400ABDEEC00A10EE100A05F0F4
:1016800077FFB0E0B0E00020674C009094ED010AD5
:10169000BDEEC00A10EE103A624C94ED010ABDEEA8
:1016A000C00A10EE102A5E4C94ED010ABDEEC00A8D
:1016B00010EE101A594C94ED010ABDEEC00A10EE5E
:1016C000100A05F055FF8EE059480068564C00900E
:1016D00094ED010ABDEEC00A10EE103A514C94EDA3
:1016E000010ABDEEC00A10EE102A4D4C94ED010A1D
:1016F000BDEEC00A10EE101A484C94ED010AB1EE8E
:10170000400ABDEEC00A10EE100A05F031FF6AE093
:101710000020454C009094ED010ABDEEC00A10EE89
:10172000103A404C94ED010ABDEEC00A10EE102AAA
:101730003B4C94ED010ABDEEC00A10EE101A374C76
:1017400094ED010AB1EE400ABDEEC00A10EE100A97
:1017500005F00EFF47E00020334C009094ED010AA5
:10176000BDEEC00A10EE103A2E4C94ED010ABDEE0B
:10177000C00A10EE102A2A4C94ED010AB1EE400A7C
:10178000BDEEC00A10EE101A244C94ED010AB1EE21
:10179000400ABDEEC00A10EE100A05F0E9FE22E094
:1017A0000020214C009094ED010ABDEEC00A10EE1D
:1017B000103A1C4C94ED010ABDEEC00A10EE102A3E
:1017C000174C94ED010ABDEEC00A10EE101A134C2E
:1017D00094ED010AB1EE400ABDEEC00A10EE100A07
:1017E00005F0C6FE00BF06E00020034602460146A3
:1017F000009005F0BDFE0AE628A800207502002032
:10180000740200205C0200206002002058020020C8
:10181000AC2E00208D02002018000020D8A7002048
:10182000ECA7002000A8002014A80020CC01002074
:10183000D001002000BFFEE770B504462CB94FF47C
:101840008071074801F07FF809E0681C0546A04256
:1018500005DB4FF48071024801F077F8002570BD78
:10186000000002401CB50121084605F0FDFA4FF4C6
:101870008070009001208DF8040000208DF8060093
:1018800003208DF8050001208DF807006946024805
:1018900000F0EEFF1CBD00000000024070B50446E1
:1018A000002500BF05E0002104F5B16040F82510D7
:1018B0006D1C102DF7D3002504E0002104F58E7077
:1018C00041556D1CB5F5806FF7D300202070607016
:1018D0000120A0700020C4F8C80501212176402114
:1018E000A1710021617684F81C15012184F81D1571
:1018F000002184F81F1584F81E154FF4807104F13F
:101900001C00FEF7D4FC4FF4806104F58E70FEF7E6
:10191000CEFC122104F22650FEF7C9FC3E2104F54C
:10192000A760FEF7C4FC002070BD704700221B4872
:101930000078012830D1002125E0194800EBC100D2
:1019400090ED010ADFED170AB4EEE00AF1EE10FAAD
:101950000BDC134800EBC10090ED010ADFED120A29
:10196000B4EEE00AF1EE10FA0CD20D4830F8310076
:10197000002807DD0A4830F83100B0F52F7F01DA82
:10198000501CC2B2491CB1F5906FD6DB002A01DDB4
:10199000012070470020FCE70020FAE758020020F1
:1019A000AC2E0020000096430000704200B5B0EE5F
:1019B000401A30EEC10A3A4880ED000A394890EDED
:1019C000000A3748D0ED001A30EE210A354880ED84
:1019D000000A90ED000ADFED341AB4EEE10AF1EEF0
:1019E00010FA04DD9FED300A80ED000A0DE02D486D
:1019F00090ED000ADFED2D1AB4EEE10AF1EE10FAD7
:101A000003D29FED2A0A80ED000A294890ED000AD2
:101A10002348D0ED001A60EE211A9FED262A81EEB0
:101A2000820A2548D0ED001A1E4890ED002A61EE8A
:101A3000821A9FED202AC1EE822A30EE220A18482F
:101A4000D0ED001A1D4890ED002A71EEC21A1C4814
:101A500090ED002A61EE821A9FED162AC1EE822ACD
:101A600030EE220A174880ED000A0D4890ED000A7A
:101A7000124880ED000A144890ED000ABDEEC00A3D
:101A800010EE100A06F0FAFB012804D19FED0F0AB0
:101A9000044880ED000A0B4890ED000A00BD0000EC
:101AA000000300200803002000007A4400007AC4EC
:101AB000D00000200000C842D80000200C03002005
:101AC000D4000020040300201800002000000000C3
:101AD00000B52DED040B2DED108B85B0B0EE0C0A8A
:101AE000B0EE408AFE480078012802D0FC48007819
:101AF00050B9FC48006838B1FB48007820B117AAFB
:101B000016A915A805F09AFAF848007818B1F74810
:101B10000078012814D19DED171ADDED160A9DED10
:101B2000150A05F073FDF24890ED000A8DED150AD7
:101B300090ED010A8DED160A90ED020A8DED170A5F
:101B4000EA48007800287DD19DED160ADDED150AE2
:101B500030EE200AE748D0ED000AE74890ED001A81
:101B600070EE810A9DED171A01EE600AE34880EDE0
:101B7000020A9DED160AB1EE400ADDED150A30EEBF
:101B8000200ADC48D0ED000ADB4890ED001A70EE28
:101B9000810A9DED171A01EE600AD94880ED020A0C
:101BA0009DED160ADDED150A30EE200AD148D0ED84
:101BB000000AD14890ED001A70EE810A9DED171AC7
:101BC00001EE200ACF4880ED020A9DED160AB1EE23
:101BD000400ADDED150A30EE200AC648D0ED000AB5
:101BE000C54890ED001A70EE810A9DED171A01EEBE
:101BF000200AC54880ED020AC048D0ED020AB0EEC6
:101C0000600AB0EE481AF1EE480A0FF061F9BB48DD
:101C100080ED020ABA48D0ED020AB0EE600AB0EEDA
:101C2000481AF1EE480A0FF053F9B54880ED020A60
:101C3000B448D0ED020AB0EE600AB0EE481AF1EEF8
:101C4000480A00E013E00FF043F9AE4880ED020AC5
:101C5000AD48D0ED020AB0EE600AB0EE481AF1EEDF
:101C6000480A0FF035F9A84880ED020A62E39F4860
:101C7000007801287ED19DED160AA448D0ED000A17
:101C80009DED171A00EE810A9C4880ED020A9F48DC
:101C900090ED000ADDED170A20EE200A10EE101A72
:101CA0000846FEF7B5FC41EC1A0B9DED160AF6EE60
:101CB000000A20EE200A10EE101A0846FEF7A8FCD3
:101CC000CDE902011598FEF7A3FC41EC1D0B9FED39
:101CD000900B0AF091FFB0EE40FAF0EE60FA9FED43
:101CE0008E0B53EC102B51EC1F0BFEF704FCCDE9CF
:101CF00000019DED000B51EC100B81F0004141EC17
:101D00001E0B53EC1D2BFEF784FB41EC1C0B9DEDD1
:101D1000020B53EC102BFEF776FB41EC1B0B53EC44
:101D20001A2BFEF7CFFA41EC190BFEF784FC74492D
:101D30008860764890ED000ADDED170A20EE200A53
:101D400010EE101A0846FEF763FC41EC1A0B9DEDED
:101D5000160AF6EE000A20EE200A10EE101A0846C7
:101D6000FEF756FC41EC1C0B1598FEF751FC41ECBC
:101D70001E0B00E05BE09FED660B0AF03DFFB0EE4E
:101D800040FAF0EE60FA9FED640B53EC102B51EC2F
:101D90001F0BFEF7B0FB53EC1E2BCDE902019DEDAE
:101DA000020B51EC100BFEF734FB41EC1D0B53EC16
:101DB0001C2BFEF728FB41EC1B0B53EC1A2BFEF7F8
:101DC00081FA41EC190BFEF736FC4E4988604B480E
:101DD000D0ED020AB0EE600AB0EE481AF1EE480A01
:101DE0000FF076F8454880ED020A4548D0ED020A2A
:101DF000B0EE600AB0EE481AF1EE480A0FF068F84B
:101E00003F4880ED020A3F48D0ED020AB0EE600A7A
:101E1000B0EE481AF1EE480A0FF05AF8394880ED52
:101E2000020A9FED3F0A384880ED020A82E22F48FD
:101E3000007802287CD19FED3B0A8DED040A9DEDD0
:101E4000170AF0EE408A2C4890ED000AF6EE000AE0
:101E500020EE200A10EE101A0846FEF7D9FB41ECDE
:101E60001A0B18EE900AFEF7D3FB41EC1E0BB0EEF6
:101E70004E0AF0EE6E0A0AF0FFFEB0EE40CAF0EE37
:101E800060CA1C480068FEF7C3FB41EC1D0B53EC15
:101E90001C2BFEF730FB41EC1B0B53EC1A2BFEF70F
:101EA000B2FA41EC190BFEF7C6FB0FEE100A9FEDDC
:101EB0001E1ADFED1E0AB0EE680A0FF009F8F0EE08
:101EC000408AF5EEC08AF1EE10FA4ED00A48D0ED05
:101ED000000AB6EE001AB0EE4F0A01EE600A28E0E2
:101EE000600200205C02002074020020CC0100206F
:101EF000CCA700203C02002038020020D8A70020F8
:101F0000ECA7002000A8002014A800204002002018
:101F10000000000000000840000000000000004039
:101F200000000000D7231F440AD7A33E48E1FABEB1
:101F3000C8E0DDED150A20EE200AC0EE0F0AFE48CB
:101F4000C0ED020AFD48D0ED000AB6EE001AB0EE70
:101F50004F0A01EE200ADDED150A20EE200AC0EE40
:101F60000F0AF748C0ED020A09E09DED150AF24894
:101F700080ED020A9DED150AF14880ED020A9FED01
:101F8000F10A28EE800A10EE101A0846FEF740FB10
:101F900041EC1D0B18EE900AFEF73AFB41EC1C0BCE
:101FA0001FED231BB0EE4C0AF0EE6C0A09F0FCFFAB
:101FB000B0EE40BAF0EE60BA9FEDE30B53EC102B9D
:101FC00051EC1B0BFEF725FA41EC190B18EE900AA9
:101FD000FEF71EFB41EC1C0B1FED331BB0EE4C0A51
:101FE000F0EE6C0A09F0E0FFB0EE40BAF0EE60BA35
:101FF0009FEDD70B53EC102B51EC1B0BFEF709FA9E
:1020000041EC1A0B53EC192BFEF75CF953EC1D2B2A
:10201000CDE900019DED000B51EC100BFEF7F3F93B
:1020200041EC1E0B9FEDCC0B53EC102BFEF74AF945
:10203000CDE902019DED020B51EC100BFEF7FBFA0E
:102040000FEE900A9FEDC60A3FEEC01A9DED040AFE
:10205000DFEDC40A41EE000ABDEEE00AC24880EDA1
:10206000000AB548D0ED020AB0EE600AB0EE481A98
:10207000F1EE480A0EF02CFFAF4880ED020AB0489E
:10208000D0ED020AB0EE600AB0EE481AF1EE480A4E
:102090000EF01EFFAA4880ED020A1FED5F0AB3484A
:1020A00080ED020A1FED620AB14880ED020A40F697
:1020B00098024FF44871AC4800680EF01EFFAA4920
:1020C000086037E1AB48007803284AD19DED170A34
:1020D0009A48D0ED000A60EE200AB0EE001A80EEB9
:1020E000810ADDED150A30EEC00A934880ED020A40
:1020F0009DED170A9148D0ED000A20EE200AB0EEBF
:10210000001AC0EE010A9DED150A30EE800A8C48D7
:1021100080ED020A8848D0ED020AB0EE600AB0EE07
:10212000481AF1EE480A0EF0D3FE834880ED020A09
:102130008348D0ED020AB0EE600AB0EE481AF1EE24
:10214000480A0EF0C5FE7E4880ED020A1FED8C0A9B
:10215000864880ED020A1FED8E0A854880ED020A4E
:10216000E8E08448007804287DD1744890ED000AA6
:102170008148D0ED000A30EE200ADDED170A20EE8E
:10218000200AB0EE001AC0EE010A9DED150A30EEED
:10219000600A694880ED020A684890ED000A7648B6
:1021A000D0ED000A30EE200ADDED170A60EE200ABD
:1021B000B0EE001A80EE810ADDED150A30EEC00A9D
:1021C0005F4880ED020A5D4890ED000A6A48D0ED54
:1021D000000A30EE200ADDED170A60EE200AB0EEAC
:1021E000001A80EE810ADDED150A30EE200A5F4804
:1021F00080ED020A514890ED000A5F48D0ED000AD8
:1022000030EE200ADDED170A20EE200AB0EE001AAB
:10221000C0EE010A9DED150A30EE800A544880EDAB
:10222000020A4548D0ED020AB0EE600AB0EE481A44
:10223000F1EE480A0EF04CFE3F4880ED020A40489D
:10224000D0ED020AB0EE600AB0EE481AF1EE480A8C
:102250000EF03EFE3A4880ED020A4448D0ED020AF4
:10226000B0EE600A00E017E0B0EE481AF1EE480A5E
:102270000EF02EFE3D4880ED020A3D48D0ED020AE8
:10228000B0EE600AB0EE481AF1EE480A0EF020FEF9
:10229000374880ED020A4DE036480078052849D1DC
:1022A0009DED170A2548D0ED000A20EE200AF0EE39
:1022B000000A80EE201A9DED150A30EE410A1E48F4
:1022C00080ED020A9DED170A1C48D0ED000A20EEB1
:1022D000200AF0EE000A80EE201A9DED150A31EE7C
:1022E000000A174880ED020A1348D0ED020AB0EE4A
:1022F000600AB0EE481AF1EE480A0EF0E9FD0E4809
:1023000080ED020A0E48D0ED020AB0EE600AB0EE8F
:10231000481AF1EE480A0EF0DBFD094880ED020A8A
:102320009FED160A114880ED020A9FED140A10482D
:1023300080ED020A05B023E0D8A700203802002073
:10234000ECA70020E5D0E23F00000000D34DF43FB1
:10235000000000809318E4BF000000E07A14FC3F06
:10236000D7A3E03F0080BB44D001002000A800209C
:1023700014A80020CC0100203C0200200000000036
:10238000BDEC108B0FBD00001CB50121082004F02E
:102390006BFD0820009000208DF8040003208DF8CC
:1023A000050001208DF807006946024800F060FA38
:1023B0001CBD0000000C024000B589B00121084698
:1023C00004F082FD0121032004F04EFD4FF4004093
:1023D000019003208DF8090002208DF808000120EB
:1023E0008DF80A008DF80B0001A92B4800F040FA87
:1023F0000820019003208DF8090002208DF80800C4
:1024000001208DF80A008DF80B0001A9234800F087
:102410002FFA01220F21204800F072FA0122032135
:102420001E4800F06DFA06A805F01EFF0020ADF86A
:1024300018004FF6FF7007900020ADF82000ADF8AF
:102440001A0006A94FF0804005F0CCFE00231A4682
:1024500003214FF0804005F0E1FC03A805F036FDB4
:102460000020ADF8140003A94FF0804005F0F7FC00
:102470000121880705F0B4FC01221146900705F000
:102480002EFD00214FF0804005F07DFE01218807E0
:1024900005F0A9FC09B000BD0000024000040240A4
:1024A00000B589B00121022004F00EFD01210220B7
:1024B00004F0DAFC3020019003208DF8090002209E
:1024C0008DF8080001208DF80A008DF80B0001A995
:1024D000204800F0CDF9022204211E4800F010FA35
:1024E000022205211B4800F00BFA06A805F0BCFEED
:1024F0000020ADF818004FF6FF7007900020ADF8EF
:102500002000ADF81A0006A9134805F06BFE002361
:102510001A460321104805F081FC03A805F0D6FCFB
:102520000020ADF8140003A90B4805F098FC012128
:10253000094805F055FC01221146074805F0CFFC7B
:102540000021054805F01FFE0121034805F04BFC62
:1025500009B000BD000402400004004000B589B08D
:102560000121042004F0B0FC0121022004F07CFCD5
:10257000C020019003208DF8090002208DF808008A
:1025800001208DF80A008DF80B0001A9204800F009
:102590006FF9022206211E4800F0B2F9022207213B
:1025A0001B4800F0ADF906A805F05EFE0020ADF86E
:1025B00018004FF6FF7007900020ADF82000ADF82E
:1025C0001A0006A9134805F00DFE00231A46032140
:1025D000104805F023FC03A805F078FC0020ADF8B6
:1025E000140003A90B4805F03AFC0121094805F045
:1025F000F7FB01221146074805F071FC0021054850
:1026000005F0C1FD0121034805F0EDFB09B000BD57
:10261000000402400008004000B589B001210820F4
:1026200004F052FC0121084604F01EFC02220021A5
:10263000264800F065F902220121244800F060F9E3
:102640000320019002208DF809008DF80800012078
:102650008DF80A008DF80B0001A91C4800F008F95C
:1026600006A805F001FE0020ADF818004FF6FF7037
:1026700007900020ADF82000ADF81A0006A9144814
:1026800005F0B0FD00231A460321114805F0C6FBF2
:1026900003A805F01BFC0020ADF8140003A90C48AA
:1026A00005F0DDFB01210A4805F09AFB01221146E5
:1026B000074805F014FC0021054805F064FD0121E0
:1026C000034805F090FB09B000BD00000000024087
:1026D000000C004072B600BFFEE7000000B5B0EE8F
:1026E000401A30EEC10A524880ED000A514890ED80
:1026F000000A4F48D0ED001A30EE210A4D4880ED17
:10270000000A90ED000ADFED4C1AB4EEE10AF1EE9A
:1027100010FA04DD9FED480A80ED000A0DE04548FF
:1027200090ED000ADFED451AB4EEE10AF1EE10FA81
:1027300003D29FED420A80ED000A4148007802284A
:1027400003D03F48007801282CD13E48D0ED001A34
:102750009FED3D2A81EE820A3548D0ED001A20EE29
:10276000210A3A4890ED002ADFED372AC2EE221AFC
:10277000304890ED002A01EE820A354890ED002A9B
:10278000DFED312AC2EE221A294890ED002A3148A5
:10279000D0ED002A32EE622A01EE820A2E4880ED48
:1027A000000A2BE02D4890ED000ADFED271A80EE9D
:1027B000212A1F4890ED000A22EE000A284890EDD9
:1027C000002ADFED212AC2EE221A1A4890ED002AD3
:1027D00001EE820A234890ED002ADFED1B2AC2EEAB
:1027E000221A134890ED002A1A48D0ED002A32EE42
:1027F000622A01EE820A184880ED000A0C4890ED2A
:10280000000A144880ED000A174890ED000ABDEE5A
:10281000C00A10EE100A05F031FD012804D19FED29
:10282000130A044880ED000A0B4890ED000A00BD31
:10283000100300201803002000007A4400007AC42E
:10284000CC010020E80000200000C842F000002079
:10285000EC0000201C03002014030020DC000020FA
:10286000E4000020E000002018000020000000002C
:10287000F0B50A4600210023002400BF3DE00125F9
:1028800005FA01F3156805EA03049C4234D1056892
:102890004F000326BE40B543056015794E00B54094
:1028A0000668354305601579012D02D01579022D92
:1028B00016D185684F000326BE40B5438560557923
:1028C0004E00B540866835438560456801268E40D8
:1028D000B5434560456896798E40B6B2354345604C
:1028E000C5684F000326BE40B543C560D5794E008C
:1028F000B540C6683543C560491C1029BFD3F0BD3B
:10290000F0B5002300244D07ED0E02FA05F3CE10BA
:1029100000F1200555F826504E07F70E0F26BE4051
:10292000B543CF1000F1200646F82750CE1000F135
:10293000200555F8265045EA0304CE1000F1200585
:1029400045F82640F0BD4183704701837047000081
:1029500010B504460723012221460848FEF7E4F893
:102960000648FEF73DF900BF02210448FEF7A8F82B
:102970000028F9D00148FEF79FF810BD0020014063
:1029800010B504460723012221460848FEF7CCF87B
:102990000648FEF725F900BF02210448FEF790F82B
:1029A0000028F9D00148FEF787F810BD002101404A
:1029B00010B50124D948007818B1D848007801280A
:1029C00074D1D7480078092871D2DFE800F07F057C
:1029D0001222314352627100D24890ED000AD2486F
:1029E00080ED000A9FEDD10AD14880ED000A012454
:1029F00078E0CC4890ED000ACB4880ED000AC94849
:102A000090ED000AB1EE400AC94880ED000A0124A9
:102A100068E09FEDC60AC44880ED000AC14890ED09
:102A2000000AB1EE400AC24880ED000A012459E0D4
:102A3000BC4890ED000AB1EE400ABB4880ED000AA8
:102A4000B84890ED000AB1EE400AB94880ED000A9E
:102A5000012447E0B34890ED000AB1EE400AB248C5
:102A600080ED000A9FEDB10AB14880ED000A012413
:102A700038E0AC4890ED000AB1EE400AAA4880ED7B
:102A8000000AA84890ED000AA94880ED000A012438
:102A900028E09FEDA60AA44880ED000AA14890ED29
:102AA000000AA34880ED000A01241BE049E00DE084
:102AB0009C4890ED000A9C4880ED000A994890EDF2
:102AC000000A9B4880ED000A01240BE09FED970A65
:102AD000954880ED000A9FED950A954880ED000A23
:102AE000002400BF00BF002C11D1924800780128BB
:102AF0000ED18C4890ED000ADFED8F0A80EE201A8F
:102B00009FED8E0A21EE000A8D4880ED000AA6E0B6
:102B10008C48007801280ED1824890ED000ADFED44
:102B2000860A80EE201A9FED880A21EE000A84486A
:102B300080ED000A93E09FED7D0A814880ED000A58
:102B40008DE07748007809286AD2DFE800F069054F
:102B5000111D283644525D00724890ED000A7248FB
:102B600080ED000A9FED710A754880ED000A62E071
:102B70006C4890ED000A6C4880ED000A9FED720AE7
:102B80006F4880ED000A56E09FED680A664880EDC8
:102B9000000A9FED6D0A6A4880ED000A4BE061482B
:102BA00090ED000AB1EE400A5F4880ED000A9FED0B
:102BB000660A634880ED000A3DE05A4890ED000A3D
:102BC000B1EE400A584880ED000A9FED580A5C4873
:102BD00080ED000A2FE0534890ED000AB1EE400A64
:102BE000514880ED000A9FED550A554880ED000AD6
:102BF00021E09FED4E0A4C4880ED000A9FED4F0A00
:102C00004F4880ED000A16E0464890ED000A46481D
:102C100080ED000A9FED490A494880ED000A0AE06C
:102C20009FED420A404880ED000A9FED400A44486B
:102C300080ED000A00BF00BF3E480078012805D1A2
:102C40009FED3E0A3E4880ED000A08E03D480078CE
:102C5000012804D19FED3C0A394880ED000A2F4835
:102C6000007802280DD1364890ED000AF0EE000AF7
:102C700020EE200AF2EE020A80EE201A80ED001A01
:102C800029E026480078032807D024480078052842
:102C900003D02248007804281DD1234890ED000A73
:102CA000B5EEC00AF1EE10FA06D2254890ED000A02
:102CB000B1EE400A80ED000A214890ED000A194863
:102CC000D0ED000A20EE200ADFED1B0A80EE201A6C
:102CD0001B4880ED001A144890ED000ADFED1B0A36
:102CE00080EE201A80ED001A114890ED000ADFED09
:102CF000170A80EE201A80ED001A114890ED000AA4
:102D000080ED000A90ED001A0948D0ED000A06484F
:102D100090ED000AFEF7DCFE10BD0000CC010020A3
:102D20004D020020D40100201C0200200000000001
:102D3000200200204B0200200000FA43DB0FC93FB5
:102D4000240200204C020020DB0FC9BF00007A449F
:102D500010B52DED028B9FED950AB0EE408A944898
:102D600090ED000A934880ED000A934800884038AF
:102D700000EE100AB8EEC00A904880ED000A9048B4
:102D80000078012821D18D4890ED000AB1EE400A6B
:102D90008C48D0ED000A20EE200ADFED8B0A20EEF1
:102DA000200A8648D0ED000A884890ED001A70EE9F
:102DB000C10A874890ED001A60EE810A9FED821AE1
:102DC00000EEC10AB0EE408A46E07D480078052852
:102DD00021D17A4890ED000AB1EE400A7D48D0ED4D
:102DE000000A20EE200ADFED780A20EE200A734860
:102DF000D0ED000A754890ED001A70EEC10A7648D1
:102E000090ED001A60EE810A9FED6F1A00EEC10A84
:102E1000B0EE408A20E0694890ED000AB1EE400A29
:102E20006E48D0ED000A20EE200ADFED670A20EEA2
:102E3000200A6248D0ED000A644890ED001A70EE56
:102E4000C10A674890ED001A60EE810A9FED5E1A94
:102E500000EEC10AB0EE408A584890ED000A5B4887
:102E600080ED000A5648007860B9514890ED000A9C
:102E700028EE000ADFED5B0A80EE201A5A4880ED4A
:102E8000001A72E04E48007801280CD1484890EDB5
:102E9000000A28EE000ADFED550A80EE201A52489B
:102EA00080ED001A61E046480078022807D19FEDC6
:102EB000500AC8EE000A4C48C0ED000A55E04048F0
:102EC0000078032818D13B4890ED000AB5EEC00AFF
:102ED000F1EE10FA03D2B1EE480AB0EE408A34485F
:102EE00090ED000A28EE000ADFED420A80EE201A7B
:102EF0003D4880ED001A38E031480078052818D1A7
:102F00002C4890ED000AB5EEC00AF1EE10FA03D29B
:102F1000B1EE480AB0EE408A254890ED000A28EE4E
:102F2000000ADFED300A80EE201A2F4880ED001AEB
:102F30001BE023480078042817D11E4890ED000AB2
:102F4000B5EEC00AF1EE10FA03D2B1EE480AB0EEC7
:102F5000408A174890ED000A28EE000ADFED260AA5
:102F600080EE201A204880ED001A124890ED000AE9
:102F7000DFED220A80EE201A80ED001A1A4890ED4B
:102F8000000A80ED000A9FED090A1D4880ED000A45
:102F9000154890ED001A1A48D0ED000A054890ED4A
:102FA000000AFEF795FDBDEC028B10BD000000008D
:102FB000640200201C02002024000020C402002023
:102FC000CC010020E8010020CDCCCC3DC80200207F
:102FD000EC010020D8010020DC010020F8010020D5
:102FE000FC01002000504347240200200010A446AA
:102FF0000000E14300DC824700089D4600007A445F
:103000002002002010B52DED028B9FEDA10AB0EE3D
:10301000408AFEF78BFC00287ED19E4890ED000A86
:103020009D4880ED000A9D480068C0F1640000EEF4
:10303000100AB8EEC00A9A4880ED000A9948007854
:10304000012821D1964890ED000AB1EE400A964839
:10305000D0ED000A20EE200ADFED940A20EE200ACF
:103060008F48D0ED000A924890ED001A70EEC10A28
:10307000904890ED001A60EE810A9FED8F1A00EEE5
:10308000C10AB0EE408A46E086480078052821D182
:10309000834890ED000AB1EE400A8848D0ED000A5E
:1030A00020EE200ADFED860A20EE200A7C48D0EDD3
:1030B000000A7F4890ED001A70EEC10A814890ED39
:1030C000001A60EE810A9FED7E1A00EEC10AB0EE92
:1030D000408A20E0724890ED000AB1EE400A7A483A
:1030E000D0ED000A20EE200ADFED700A20EE200A63
:1030F0006B48D0ED000A6E4890ED001A70EEC10AE0
:10310000724890ED001A60EE810A9FED6B1A00EE96
:10311000C10AB0EE408A00E08CE0614890ED000A00
:10312000634880ED000A0020FEF786FB5D480078CA
:1031300060B9584890ED000A28EE000ADFED640AF5
:1031400080EE201A634880ED001A80E05548007830
:1031500001280CD14F4890ED000A28EE000ADFED5F
:103160005E0A80EE201A5B4880ED001A6FE04D4841
:103170000078032818D1484890ED000AB5EEC00A3F
:10318000F1EE10FA03D2B1EE480AB0EE408A41489F
:1031900090ED000A28EE000ADFED500A80EE201ABA
:1031A0004C4880ED001A52E03E480078052818D1BE
:1031B000394890ED000AB5EEC00AF1EE10FA03D2DC
:1031C000B1EE480AB0EE408A324890ED000A28EE8F
:1031D000000ADFED430A80EE201A3E4880ED001A17
:1031E00035E030480078042818D12B4890ED000ACB
:1031F000B5EEC00AF1EE10FA03D2B1EE480AB0EE15
:10320000408A244890ED000A28EE000ADFED350AD6
:1032100080EE201A2F4880ED001A18E0214800782F
:10322000022814D19FED300AC8EE000A2948C0EDEB
:10323000000A0CE06420FEF7FFFA9FED150A16481D
:1032400080ED000A9FED120A224880ED000A124824
:1032500090ED000ADFED250A80EE201A80ED001ABD
:103260001C4890ED000A80ED000A9FED090A2048F5
:1032700080ED000A174890ED001A1D48D0ED000AB5
:10328000054890ED000AFEF723FCBDEC028B10BD53
:1032900000000000680200201C0200204000002006
:1032A000CC020020CC010020F00100200AD7A33D71
:1032B000D0020020F4010020CDCC4C3DE0010020E4
:1032C000CDCCCC3DE401002000020020040200200F
:1032D000005043472402002000C0284600C82F4762
:1032E00000C0DA4600089D460000E14300007A4431
:1032F0002002002010B52DED048B022003F080FF8A
:1033000074490860032003F07BFF72494860042081
:1033100003F076FF6F498860052003F071FF6D4967
:10332000C8606D48007806281AD2DFE800F0031A5A
:10333000354A5F76674890ED000AB8EEC08A90ED96
:10334000010AF8EEC08A8068404200EE100AB8EE2A
:10335000C09A6048C068404200EE100AF8EEC09A79
:1033600070E05C480068404200EE100AB8EEC08A87
:1033700058484068404200EE100AF8EEC08A5548AE
:103380008068404200EE100AB8EEC09A514890EDB5
:10339000030AF8EEC09A55E04E4890ED000AB8EEE8
:1033A000C08A4068404200EE100AF8EEC08A4948E0
:1033B00090ED020AB8EEC09A90ED030AF8EEC09ABA
:1033C00040E0444890ED000AB8EEC08A40684042B0
:1033D00000EE100AF8EEC08A3E4890ED020AB8EE00
:1033E000C09A90ED030AF8EEC09A2BE0394890EDB0
:1033F000000AB8EEC08A90ED010AF8EEC08A806833
:10340000404200EE100AB8EEC09A3248C06840420E
:1034100000EE100AF8EEC09A14E02E4890ED000A73
:10342000B8EEC08A4068404200EE100AF8EEC08A4A
:10343000284890ED020AB8EEC09A90ED030AF8EE23
:10344000C09A00BF00BF9FED250A28EE000A24485D
:10345000D0ED000A20EE200A2248D0ED000A80EECE
:10346000201A214880ED001A9FED1C0A28EE800AE0
:103470001B48D0ED000A20EE200A1A48D0ED000AC1
:1034800080EE201A194880ED001A9FED140A29EEEB
:10349000000A1348D0ED000A20EE200A1148D0EDB2
:1034A000000A80EE201A124880ED001A9FED0B0AE8
:1034B00029EE800A0A48D0ED000A20EE200A0948C9
:1034C000D0ED000A80EE201A0A4880ED001ABDEC0B
:1034D000048B10BD34A80020CC0100200000C8429D
:1034E0003402002030020020D8A70020ECA70020E2
:1034F00000A8002014A800202DE9F04107460C4642
:103500000025002608E03846FFF722FA054405208A
:103510000AF00CFF701CC6B2A642F4DBB5FBF4F057
:1035200080B2BDE8F081000010B52DED0E8B0820B3
:10353000FFF726FA0446FDF75EF841EC1E0B9FEDFF
:10354000180B53EC102BFCF764FF41EC1D0B9FEDA7
:10355000160B53EC102BFCF75CFF41EC1C0B9FEDA2
:10356000140B53EC102BFCF754FF41EC1B0B9FED9D
:10357000120B53EC102BFCF7BEFF41EC1A0B9FED26
:10358000100B53EC102BFCF7B6FF41EC190BFDF7B9
:1035900052F808EE100AB0EE480ABDEC0E8B10BDD2
:1035A0006666666666660A40000000000000264007
:1035B0000000008014AEEF3F000000000000F03F6C
:1035C000000000000000B04010B50446D4F8DC0351
:1035D00006F09AFD10BD10B50446D4F8DC0306F0E1
:1035E000AAFD10BD10B50446206807F077FC10BD99
:1035F00010B50446206807F078FC10BD10B50246EF
:103600000023C1EB011402F1140000EB840083716C
:10361000C1EB011402F1140000EB8400C371C1EB93
:10362000011402F1140000EB84004374C1EB011497
:1036300002F1140000EB84000374002010BD024668
:10364000C1EB011302F1140000EB830090F8380085
:1036500070470246C1EB011302F1140000EB830036
:10366000406A704770B504460D46002600BF94F8C6
:10367000D403012801D1022070BD012084F8D403B5
:1036800000BF2946206807F041FC00BF002084F8F5
:10369000D40300BF3046EFE72DE9FF5F04460D4637
:1036A00016469B46DDE90E78DDF840A000BF94F891
:1036B000D403012803D1022004B0BDE8F09F01200B
:1036C00084F8D40300BF0021C5EB051204F11400F7
:1036D00000EB82004171C5EB051104F1140000F804
:1036E00021B0C5EB051100EB81004570C5EB05115C
:1036F00004F1140000EB810080F8128006F07F01D5
:10370000C5EB051204F1140000EB8200817029461C
:103710002046FFF773FF06F08000802808D10121C2
:10372000C5EB051204F1140000EB8200C17007E044
:103730000021C5EB051204F1140000EB8200C170FA
:10374000206807F0D2FB8146B8F1010F09D1012FA3
:1037500007D1B9F1000F04D1BAF1BC0F01D94FF074
:10376000BC0AC5EB051104F1140000EB81000771E0
:10377000C5EB051204F1140000EB8200A0F814A0C0
:103780001FFA8AF0CDE9007802905B46324629465E
:10379000206807F097FC039000BF002084F8D40352
:1037A00000BF039888E770B504460D461646D4F866
:1037B000DC0306F051FD70BD2DE9F05F04460D46B7
:1037C00016461F46DDE90C9BDDE90A8AC5EB0511AB
:1037D00004F1140000EB8100C670C5EB051104F183
:1037E000140000EB81008774B8F1000F10D10321A1
:1037F000C5EB051204F1140000EB82008175C5EBE6
:10380000051104F1140000EB810080F805B007E019
:103810000221C5EB051204F1140000EB8200817552
:1038200037B1012F6FD0022F51D0032F6CD187E019
:10383000B8F1010F4AD136BBB9F1000F08D101210F
:10384000C5EB051204F1140000EB820080F829108A
:10385000C5EB051104F1140000EB810090F829007C
:1038600040B90021C5EB051204F1140000EB820001
:1038700081752BE00221C5EB051204F1140000EB69
:103880008200817522E0C5EB051104F1140000EB04
:1038900081008079012819D1C5EB051104F11400CC
:1038A00000EB810090F8280040B90021C5EB05121B
:1038B00004F1140000EB8200817507E00221C5EBE2
:1038C000051204F1140000EB8200817579E0E6B97D
:1038D000C5EB051104F1140000EB810090F82900FC
:1038E00040B90021C5EB051204F1140000EB820081
:1038F000817524E00221C5EB051204F1140000EBF0
:10390000820081751BE052E05AE0C5EB051104F11D
:10391000140000EB810090F8280040B90021C5EBAD
:10392000051204F1140000EB8200817507E002210A
:10393000C5EB051204F1140000EB8200817540E034
:10394000D6B9C5EB051104F1140000EB810090F825
:10395000290040B90021C5EB051204F1140000EB69
:103960008200817522E00221C5EB051204F11400EA
:1039700000EB8200817519E0C5EB051104F114001C
:1039800000EB810090F8280040B90021C5EB05123A
:1039900004F1140000EB8200817507E00221C5EB01
:1039A000051204F1140000EB8200817509E000218A
:1039B000C5EB051204F1140000EB8200817500E0F4
:1039C00000BF00BFC5EB051104F1140000EB81003E
:1039D000C0F818A0C5EB051104F1140000EB81003C
:1039E000C0F820900021C5EB051204F1140000EB93
:1039F000820080F83810C5EB051204F1140000EBCA
:103A000082004162C5EB051104F1140000EB810056
:103A100045700021C5EB051204F1140000EB820093
:103A200080F83910A279C5EB051C04F1140303EBEF
:103A30008C01206807F038FCBDE8F09F2DE9F041CB
:103A400004462768B846206807F05BFA01287AD157
:103A5000206807F0A1FE08B9BDE8F081206807F0F2
:103A60009BFE00F40010B0F5001F03D14FF40010CE
:103A700021684861206807F08FFE00F48010B0F5DF
:103A8000801F03D14FF4801021684861206807F03F
:103A900083FE00F08060B0F1806F03D14FF0806052
:103AA00021684861206807F077FE00F002000228D4
:103AB00001D121684861206807F06EFE00F00050D7
:103AC000B0F1005F19D14FF0005021684861D8F87B
:103AD000400400F0010080B91021384607F0D4F905
:103AE000384607F0A9F9607A022803D1012120683D
:103AF00007F01EFE2046FFF76EFD206807F04CFE23
:103B000000F08070B0F1807F02D1204601F0A7F96B
:103B1000206807F041FE00F00800082805D1204683
:103B200000F0D8F8082021684861206807F034FECA
:103B300000F00070B0F1007F27D1206807F0ACFBE7
:103B4000064600251AE035E005F00F010120884007
:103B5000304090B108F5A06000EB4510006800F41B
:103B60000040B0F5004F04D1E9B2204600F0EBF878
:103B700003E0E9B2204600F0D6FD6D1C6079A84252
:103B8000E2D84FF0007021684861206807F004FE19
:103B9000C0F3001070B12068806920F01000216827
:103BA0008861204601F0B6F92068806940F0100075
:103BB0002168886100BF4FE738B504460CB9012081
:103BC00038BD256894F8D50328B9002084F8D403BB
:103BD000204600F035F8032084F8D503B5F1A04F56
:103BE00001D10021A171206807F0D0F8207C8DF868
:103BF000000094E80F0007F059F820B1022084F883
:103C0000D5030120DCE70121206807F018FE20B170
:103C1000022084F8D5030120D2E7207C8DF8000033
:103C200094E80F0007F004FD20B1022084F8D503CA
:103C30000120C5E7012084F8D5030020C0E700007B
:103C40003EB504460121084603F00EF9012180200B
:103C500003F01AF94FF4C050019002208DF80800CB
:103C600003208DF8090000208DF80B0001A90E48F3
:103C7000FEF7FEFD0A220B210B48FEF741FE0A2249
:103C80000C210948FEF73CFE43208DF8000005207A
:103C90008DF8010000208DF8020001208DF803004E
:103CA000684602F06DF83EBD0000024010B50446C3
:103CB000D4F8DC0306F0FFFA10BD10B50446D4F8C2
:103CC000DC0306F0FCFA10BD10B50446206807F0CE
:103CD00098FD10BD10B50446D4F8DC0306F084FA54
:103CE00010BD10B5044600BF94F8D403012801D1DB
:103CF000022010BD012084F8D40300BF01212068F8
:103D000007F06EF8206807F090F800BF002084F8F4
:103D1000D40300BF00BFECE710B5044600BF94F821
:103D2000D403012801D1022010BD012084F8D4035E
:103D300000BF206807F0B7FD00BF002084F8D4035F
:103D400000BF00BFF0E72DE9F04105460C46D5F86D
:103D5000008046462146286807F00FFD00F0040069
:103D6000042813D1042106F5A06000EB4410816003
:103D70000721C4EB041205F1140000EB820080F867
:103D800039102146286807F0C1F872E021462868FA
:103D900007F0F3FC00F48070B0F5807F14D14FF48D
:103DA000807106F5A06000EB441081600821C4EB2F
:103DB000041205F1140000EB820080F8391021464E
:103DC000286807F0A3F854E02146286807F0D5FCDE
:103DD00000F00800082813D1082106F5A06000EBC8
:103DE000441081600621C4EB041205F1140000EBBD
:103DF000820080F839102146286807F087F838E0FB
:103E00002146286807F0B9FC00F48060B0F5806FA7
:103E100014D14FF4806106F5A06000EB441081607E
:103E20000921C4EB041205F1140000EB820080F8B4
:103E300039102146286807F069F81AE021462868F9
:103E400007F09BFC00F08000802812D1802106F54D
:103E5000A06000EB441081600721C4EB041205F15F
:103E6000140000EB820080F839102146286807F022
:103E70004DF82146286807F080FC00F40070B0F58A
:103E8000007F0BD12146286807F040F84FF40071FD
:103E900006F5A06000EB44108160DCE02146286854
:103EA00007F06BFC00F0010000287ED0202106F511
:103EB000A06000EB44108160C4EB041105F1140014
:103EC00000EB8100C079012813D10021C4EB04125A
:103ED00005F1140000EB8200C17106F5A06000EB53
:103EE0004410406820F4803106F5A06000EB4410D7
:103EF0004160A879A8B1C4EB041105F1140000EBEE
:103F00008100C16906F5A06000EB44100069C0F3B0
:103F10001200091AC4EB041205F1140000EB820030
:103F200041620121C4EB041205F1140000EB820090
:103F300080F839100021C4EB041205F1140000EBE5
:103F400082000163012106F5A06000EB441081604E
:103F5000C4EB041105F1140000EB8100807C40B13A
:103F6000C4EB041105F1140000EB8100807C0228F1
:103F70000AD12146286806F0C9FF102106F5A06085
:103F800000EB4410816034E0C4EB041105F114002F
:103F900000EB8100807C03280AD0C4EB041105F1FA
:103FA000140000EB8100807C00E068E0012820D153
:103FB00006F5A06000EB4410006840F0005106F5E3
:103FC000A06000EB441001600121C4EB041205F174
:103FD000140000EB820080F83810C4EB041105F1E6
:103FE000140000EB810090F8382021462846FFF7A6
:103FF000DAFBA87901282FD1C4EB041105F11400D4
:1040000000EB8100C4EB0412416A05F1140000EBDF
:104010008200808A0844401EC4EB041205F114019A
:1040200001EB8201898AB0FBF1F000F00100002869
:1040300011D0C4EB041105F1140000EB810090F8DD
:10404000280080F00101C4EB041205F1140000EB1C
:10405000820080F8281064E3C4EB041105F1140019
:1040600000EB810090F8280080F00101C4EB0412FD
:1040700005F1140000EB820080F8281051E321467E
:10408000286807F07AFB00F02000202824D12021A6
:1040900006F5A06000EB44108160C4EB041105F14B
:1040A000140000EB810080790128D4D10121C4EBF8
:1040B000041205F1140000EB8200C1710321C4EB6E
:1040C000041205F1140000EB820080F8391021463B
:1040D000286806F01BFF24E32146286807F04DFB03
:1040E00000F0020002287DD1022106F5A06000EB5D
:1040F00044108160C4EB041105F1140000EB810051
:1041000090F83900012812D10221C4EB041205F104
:10411000140000EB820080F839100121C4EB041276
:1041200005F1140000EB820080F8381037E2C4EB90
:10413000041105F1140000EB810090F83900062805
:1041400012D10221C4EB041205F1140000EB82002D
:1041500080F839100521C4EB041205F1140000EBBE
:10416000820080F838101AE2C4EB041105F1140043
:1041700000EB810090F83900072809D0C4EB041146
:1041800005F1140000EB810090F8390009287ED178
:104190000221C4EB041205F1140000EB820080F848
:1041A0003910C4EB041105F1140000EB8100006B21
:1041B000401CC4EB041205F1140101EB82010863F9
:1041C000C4EB041105F1140000EB8100006B022820
:1041D00037D90021C4EB041205F1140000EB820072
:1041E000016300E0E8E1C4EB041105F1140000EB09
:1041F0008100807901281AD10021C4EB041205F155
:10420000140000EB8200C171C4EB041205F114002C
:1042100000EB8200017206F5A06000EB44104068DC
:1042200020F4803106F5A06000EB441041600421C9
:10423000C4EB041205F1140000EB820080F8381082
:10424000ADE10221C4EB041205F1140000EB820081
:1042500080F83810C4EB041105F1140000EB810064
:10426000807C40B1C4EB041105F1140000EB810027
:10427000807C0228E4D106F5A06000EB44100768BA
:1042800027F0804747F0004706F5A06000E003E014
:1042900000EB4410076082E1C4EB041105F1140047
:1042A00000EB810090F83900052872D10221C4EB9F
:1042B000041205F1140000EB820080F83910C4EB01
:1042C000041105F1140000EB8100C0790128B7D179
:1042D000C4EB041105F1140000EB8100807C03287D
:1042E00058D1C4EB041105F1140000EB8100406BC0
:1042F000401CC4EB041205F1140101EB8201486378
:10430000C4EB041105F1140000EB8100406B02289E
:1043100035D90021C4EB041205F1140000EB820032
:104320004163C4EB041205F1140000EB8200C1717B
:10433000C4EB041105F1140000EB8100006B0328AD
:1043400007D20121C4EB041205F1140000EB820036
:10435000017206F5A06000EB4410406820F4803143
:1043600006F5A06000EB441041600421C4EB041288
:1043700005F1140000EB820080F8381013E00221F0
:10438000C4EB041205F1140000EB820080F8381031
:1043900009E028E00221C4EB041205F1140000EB4F
:1043A000820080F83810C4EB041105F1140000EB12
:1043B0008100807C40B1C4EB041105F1140000EBD6
:1043C0008100807C02280DD106F5A06000EB44102E
:1043D000076827F0804747F0004706F5A06000EB2C
:1043E00044100760DBE0C4EB041105F1140000EB9E
:1043F000810090F8390003285ED10221C4EB041239
:1044000005F1140000EB820080F83910C4EB0411B0
:1044100005F1140000EB8100C07901284BD1022185
:10442000C4EB041205F1140000EB820080F8381090
:1044300006F5A06000EB4410406840F4803106F5BA
:10444000A06000EB4410416006F5A06000EB441052
:10445000C06840F0400106F5A06000EB4410C16068
:1044600006F5A06000EB4410C06820F0200106F5BE
:10447000A06000EB4410C160C4EB041105F114000E
:1044800000EB8100807C40B1C4EB041105F1140005
:1044900000EB8100807C02280DD106F5A06000EBC6
:1044A0004410076827F0804747F0004706F5A060F2
:1044B00000EB4410076072E0C4EB041105F1140036
:1044C00000EB810090F83900042830D10221C4EBC0
:1044D000041205F1140000EB820080F83910C4EBDF
:1044E000041205F1140000EB820080F83810C4EBD0
:1044F000041105F1140000EB8100807C40B1C4EB95
:10450000041105F1140000EB8100807C022846D1E3
:1045100006F5A06000EB4410076827F0804747F0DD
:10452000004706F5A06000EB4410076037E0C4EBDD
:10453000041105F1140000EB810090F839000828FF
:1045400021D10221C4EB041205F1140000EB82001A
:1045500080F83910C4EB041105F1140000EB810060
:10456000006B401CC4EB041205F1140101EB820145
:1045700008630421C4EB041205F1140000EB82006F
:1045800080F838100BE0C4EB041105F1140000EBC7
:10459000810090F83900022801D1BDE8F081C4EB18
:1045A000041105F1140000EB810090F83820214639
:1045B0002846FFF7F8F8B4E02146286807F0DDF850
:1045C00000F04000402823D1402106F5A06000EB18
:1045D000441081600521C4EB041205F1140000EBC6
:1045E000820080F83910C4EB041105F1140000EBCF
:1045F0008100807938B90021C4EB041205F1140060
:1046000000EB820001632146286806F07FFC88E009
:104610002146286807F0B1F800F0100010287ED17C
:10462000C4EB041105F1140000EB8100807C032829
:1046300015D10021C4EB041205F1140000EB820037
:1046400001630421C4EB041205F1140000EB8200A5
:1046500080F839102146286806F058FC30E0C4EB99
:10466000041105F1140000EB8100807C40B1C4EB23
:10467000041105F1140000EB8100807C02281FD199
:104680000021C4EB041205F1140000EB8200016369
:10469000A87940B1C4EB041105F1140000EB8100CE
:1046A000C07901280CD10421C4EB041205F11400D7
:1046B00000EB820080F839102146286806F026FCBD
:1046C000C4EB041105F1140000EB8100C07901284E
:1046D0001FD10021C4EB041205F1140000EB82008D
:1046E000C17106F5A06000EB4410406820F48031F1
:1046F00006F5A06000EB4410416006F5A06000EBF9
:104700004410C06840F0200106F5A06000EB4410A2
:10471000C160102106F5A06000EB441000E000E04D
:10472000816000BF39E72DE9F04705460C46D5F812
:1047300000904E462146286807F01FF800F004005C
:10474000042813D1042106F5A06000EB4410816019
:104750000721C4EB041205F1140000EB820080F87D
:1047600039102146286806F0D1FB76E321462868F7
:1047700007F003F800F02000202865D1202106F57D
:10478000A06000EB44108160C4EB041105F114003B
:1047900000EB8100407901281DD10021C4EB0412F7
:1047A00005F1140000EB820041710221C4EB0412F8
:1047B00005F1140000EB820080F838100321C4EBEF
:1047C000041205F1140000EB820080F83910214634
:1047D000286806F09BFBC4EB041105F1140000EB04
:1047E000810080790128C0D1C4EB041105F11400C7
:1047F00000EB8100C0790028B7D1C4EB041105F1AA
:10480000140000EB8100807C012807D00121C4EB5B
:10481000041205F1140000EB8200C1710321C4EB06
:10482000041205F1140000EB820080F839102146D3
:10483000286806F06BFB0021C4EB041205F114009C
:1048400000EB8200016308E32146286806F095FF2B
:1048500000F40070B0F5007F0BD14FF4007106F545
:10486000A06000EB441081602146286806F04EFBF2
:10487000F3E22146286806F080FF00F00100E8B36B
:104880000021C4EB041205F1140000EB8200016367
:104890002146286806F071FF00F0400040280DD145
:1048A0000121C4EB041205F1140000EB82004171F8
:1048B000402106F5A06000EB44108160C4EB0411B8
:1048C00005F1140000EB8100C07998B10021C4EB20
:1048D000041205F1140000EB8200C17106F5A0601E
:1048E00000EB4410406820F4803106F5A06000EB36
:1048F00044104160012106F5A06000E00FE000EBEC
:1049000044108160C4EB041205F1140000EB820036
:1049100080F839102146286806F0F8FA9DE2214611
:10492000286806F02AFF00F0400040282BD105211E
:10493000C4EB041205F1140000EB820080F839107A
:10494000C4EB041105F1140000EB8100807938B943
:104950000121C4EB041205F1140000EB8200417147
:104960000021C4EB041205F1140000EB8200016386
:104970002146286806F0CAFA402106F5A06000EB3F
:104980004410816069E22146286806F0F6FE00F0D6
:104990000800082813D1082106F5A06000EB441098
:1049A00081600621C4EB041205F1140000EB8200C3
:1049B00080F839102146286806F0A8FA4DE2214611
:1049C000286806F0DAFE00F01000102833D100212C
:1049D000C4EB041205F1140000EB82000163042112
:1049E000C4EB041205F1140000EB820080F83910CA
:1049F000C4EB041105F1140000EB8100407978B993
:104A0000C4EB041105F1140000EB8100007938B902
:104A10000121C4EB041205F1140000EB8200417186
:104A20002146286806F072FA102106F5A06000EB16
:104A30004410816011E22146286806F09EFE00F0D5
:104A40008000802855D1A87968B90721C4EB0412E9
:104A500005F1140000EB820080F839102146286827
:104A600006F054FA3EE0C4EB041105F1140000EB2B
:104A70008100006B401CC4EB041205F1140101EB32
:104A800082010863C4EB041105F1140000EB8100FE
:104A9000006B02281DD90021C4EB041205F114009B
:104AA00000EB820001630421C4EB041205F1140041
:104AB00000EB820080F83810C4EB041105F11400FB
:104AC00000EB810090F8382021462846FEF76BFE67
:104AD00008E00221C4EB041205F1140000EB82008F
:104AE00080F83810802106F5A06000EB441081604A
:104AF000B3E12146286806F040FE00F48060B0F57E
:104B0000806F14D10921C4EB041205F1140000EBED
:104B1000820080F839102146286806F0F7F94FF432
:104B2000806106F5A06000EB4410816095E12146AC
:104B3000286806F022FE00F0020002287DD1022142
:104B400006F5A06000EB44108160C4EB041105F190
:104B5000140000EB810090F83900012876D1022181
:104B6000C4EB041205F1140000EB820080F8391048
:104B70000121C4EB041205F1140000EB820080F85F
:104B80003810C4EB041105F1140000EB8100807CA7
:104B9000022808D0C4EB041105F1140000EB8100D9
:104BA000807C032851D1A87988B9C4EB041105F1A0
:104BB000140000EB810090F8290080F00101C4EBA3
:104BC000041205F1140000EB820080F82910A87986
:104BD0000128E7D1C4EB041105F1140000EB8100BA
:104BE000006A002831D0C4EB041105F1140000EB79
:104BF0008100C4EB0412016A05F1140000EB82008D
:104C0000808A0844401EC4EB041205F1140101EB34
:104C10008201898AB0FBF1F808F001000028E1D098
:104C2000C4EB041105F1140000EB810090F8290099
:104C300080F00101C4EB041201E00DE106E005F192
:104C4000140000EB820080F82910F8E0C4EB041196
:104C500005F1140000EB810090F8390003281BD106
:104C60000221C4EB041205F1140000EB820080F86D
:104C70003910C4EB041105F1140000EB8100C07978
:104C8000012808D10221C4EB041205F1140000EB45
:104C9000820080F83810D2E0C4EB041105F1140052
:104CA00000EB810090F8390004282ED10221C4EBDA
:104CB000041205F1140000EB820080F83910C4EBF7
:104CC000041205F1140000EB820080F83810C4EBE8
:104CD000041105F1140000EB8100C079012813D103
:104CE0000021C4EB041205F1140000EB8200C17135
:104CF00006F5A06000EB4410406820F4803106F512
:104D0000A06000EB4410416099E0C4EB041105F190
:104D1000140000EB810090F83900052811D1022120
:104D2000C4EB041205F1140000EB820080F8391086
:104D3000C4EB041205F1140000EB820080F8381077
:104D40007DE0C4EB041105F1140000EB810090F844
:104D50003900062812D10221C4EB041205F1140017
:104D600000EB820080F839100521C4EB041205F134
:104D7000140000EB820080F8381060E0C4EB0411EE
:104D800005F1140000EB810090F83900072809D0E4
:104D9000C4EB041105F1140000EB810090F8390018
:104DA00009284AD10221C4EB041205F1140000EBDA
:104DB000820080F83910C4EB041105F1140000EBF7
:104DC0008100006B401CC4EB041205F1140101EBDF
:104DD00082010863C4EB041105F1140000EB8100AB
:104DE000006B022811D90021C4EB041205F1140054
:104DF00000EB820001630421C4EB041205F11400EE
:104E000000EB820080F8381019E00221C4EB041294
:104E100005F1140000EB820080F8381006F5A06060
:104E200000EB4410076827F0804747F0004706F57D
:104E3000A06000EB4410076001E0BDE8F087C4EB20
:104E4000041105F1140000EB810090F83820214690
:104E50002846FEF7A8FC00E0EFE700BFEDE77CB5D1
:104E6000044626683546D5F840040190D5F840043C
:104E70000090009820F02E000090019800F00200B1
:104E800002280AD1019800F0010010B12046FEF777
:104E90009BFB009840F002000090019800F0080091
:104EA00008282AD1009840F008000090019800F0EE
:104EB000040004281ED1607A02280FD1019800F462
:104EC000C020B0F5802F04D10221206806F030FC0C
:104ED0000CE00121206806F02BFC07E0E0790128B6
:104EE00004D14EF6602140F2044041512046FEF7C5
:104EF000E4FE02E02046FEF7D9FE019800F0200013
:104F0000202803D1009840F0200000900098C5F8B8
:104F100040047CBD2DE9F84F0546D5F800B05F464A
:104F20002868D0F8208008F00F04C8F343400090B0
:104F3000C8F30A160098022806D003287DD0052859
:104F40007CD007287BD18CE0002E79D0C4EB0411F3
:104F500005F1140000EB8100806900287DD0C4EBCE
:104F6000041105F1140000EB8100406A8119C4EBC3
:104F7000041205F1140000EB8200006A814263D83C
:104F8000B2B2C4EB041C05F1140303EB8C03996962
:104F9000286806F006FCC4EB041105F1140000EBD0
:104FA000810080698119C4EB041205F1140000EB43
:104FB00082008161C4EB041105F1140000EB810053
:104FC000406A8119C4EB041205F1140000EB820061
:104FD000416207F5A06000EB44100069C0F3C94AC4
:104FE000C4EB041105F1140000EB8100808AB0428B
:104FF00033D1BAF1000F30D007F5A06000EB4410B8
:10500000D0F8009029F0804949F0004907F5A060E8
:1050100000EB4410C0F80090C4EB041105F114003B
:1050200000EB810090F8280080F00101C4EB04122D
:1050300005F1140000EB820003E011E00EE00EE049
:105040000BE080F8281008E00421C4EB041205F1FD
:10505000140000EB820080F8381003E002E000BF8B
:1050600000BF00BF00BFBDE8F88F00BFFEE7000033
:1050700010B500200E4908600E48006820F440007A
:105080000C4908600846006840F480000860002071
:105090000949C1F8AC02012009F068F9012004496E
:1050A000086009F063F900200349C1F8A80210BDA7
:1050B000A882404200040240008040421CB5012109
:1050C000022001F0D1FE4FF44060009001208DF8E5
:1050D000040000208DF8060003208DF80500012053
:1050E0008DF8070069460548FDF7C2FB0120044919
:1050F00008600449C1F8AC021CBD00000004024075
:10510000A88240420080404210B500200E4908604D
:105110000E48006820F440000C490860084600680A
:1051200040F48000086001200949C1F8AC0209F090
:105130001DF901200449086009F018F9002004490C
:10514000C1F8A80210BD0000A8824042000402403D
:105150000080404270B5054600241748006820F4DE
:10516000400015490860084600680860002619E0FC
:10517000002012490860012009F0F8F801201049C8
:10518000C1F8A8026006040E0C487C38006810B113
:1051900044F0010401E024F00104012009F0E6F8E4
:1051A000701CC6B2082EE3DB15B9FFF761FF01E002
:1051B000FFF7AAFF204670BD00040240A8824042CB
:1051C0000080404270B504460D46002600F01AF8F3
:1051D000204600F09FF800F06BF8284600F09AF89F
:1051E00000F066F800F00EF844F0010000F092F8CC
:1051F00000F05EF80120FFF7ADFF064600F034F83E
:10520000304670BD10B51548006820F440001349C1
:1052100008600846006840F48000086001201049DA
:1052200008601048D0F82C0200B910BD01200C49CC
:10523000091F086009F09AF800200A49C1F8AC0279
:1052400007488038006800B1EFE7012009F08EF8C8
:1052500000200349091F086000BFE6E70004024080
:10526000AC8240420080404210B50E48006820F4F5
:1052700040000C4908600846006840F4800008605F
:105280000020094908600949C1F8AC02012009F071
:105290006DF80120044908600449C1F8AC0209F026
:1052A00065F810BD00040240A882404200804042E0
:1052B00010B500241448006820F44000124908602A
:1052C00008460068086001201049086009F04EF89F
:1052D00001200F49C1F8A80209F048F80AE0601C53
:1052E000C4B2322C03DDFFF7BFFF002010BD012048
:1052F00009F03CF80548803800680028EFD10349E0
:10530000091F08600120F1E700040240AC8240421E
:105310000080404270B504461448006820F4400004
:10532000124908600846006840F4800008600020C8
:105330000F490860002516E0E0090D49091D0860C5
:105340006006040E012009F011F801200949C1F896
:10535000A80209F00BF8002005490860012009F0B7
:1053600005F8681CC5B2082DE6DB70BD00040240DC
:10537000A88240420080404210B50021D020FFF7B3
:1053800021FF10BD30EEC01A234880ED001A90EDC9
:10539000001A2248D0ED001A31EE611A2048D0EDF3
:1053A000001A21EE211A1F48D0ED001A1A4890ED7C
:1053B000002A01EE821A1C48D0ED001A31EE211AA3
:1053C00080ED001A90ED001ADFED181AB4EEE11A24
:1053D000F1EE10FA03DD9FED151A80ED001A124868
:1053E00090ED001ADFED121AB4EEE11AF1EE10FAA8
:1053F00003D29FED0F1A80ED001A074890ED001AB6
:10540000064880ED001A084890ED001ABDEEC11A5A
:1054100011EE100A70470000900200209802002050
:10542000280200202C020020940200200040834625
:10543000004083C630EEC01A234880ED001A90ED7C
:10544000001A2248D0ED001A31EE611A2048D0ED42
:10545000001A21EE211A1F48D0ED001A1A4890EDCB
:10546000002A01EE821A1C48D0ED001A31EE211AF2
:1054700080ED001A90ED001ADFED181AB4EEE11A73
:10548000F1EE10FA03DD9FED151A80ED001A1248B7
:1054900090ED001ADFED121AB4EEE11AF1EE10FAF7
:1054A00003D29FED0F1A80ED001A074890ED001A05
:1054B000064880ED001A084890ED001ABDEEC11AAA
:1054C00011EE100A704700009C020020A402002088
:1054D000280200202C020020A00200200040834669
:1054E000004083C630EEC01A234880ED001A90EDCC
:1054F000001A2248D0ED001A31EE611A2048D0ED92
:10550000001A21EE211A1F48D0ED001A1A4890ED1A
:10551000002A01EE821A1C48D0ED001A31EE211A41
:1055200080ED001A90ED001ADFED181AB4EEE11AC2
:10553000F1EE10FA03DD9FED151A80ED001A124806
:1055400090ED001ADFED121AB4EEE11AF1EE10FA46
:1055500003D29FED0F1A80ED001A074890ED001A54
:10556000064880ED001A084890ED001ABDEEC11AF9
:1055700011EE100A70470000A8020020B0020020BF
:10558000280200202C020020AC02002000408346AC
:10559000004083C630EEC01A234880ED001A90ED1B
:1055A000001A2248D0ED001A31EE611A2048D0EDE1
:1055B000001A21EE211A1F48D0ED001A1A4890ED6A
:1055C000002A01EE821A1C48D0ED001A31EE211A91
:1055D00080ED001A90ED001ADFED181AB4EEE11A12
:1055E000F1EE10FA03DD9FED151A80ED001A124856
:1055F00090ED001ADFED121AB4EEE11AF1EE10FA96
:1056000003D29FED0F1A80ED001A074890ED001AA3
:10561000064880ED001A084890ED001ABDEEC11A48
:1056200011EE100A70470000B4020020BC020020F6
:10563000280200202C020020B802002000408346EF
:10564000004083C61CB50121102001F00DFC012093
:10565000009000208DF8040003208DF80500012043
:105660008DF8070069460248FDF702F91CBD0000ED
:105670000010024070B52DED028B002400269FED36
:10568000730AB0EE408A002500BF5BE0704800EB73
:10569000C40090ED010ADFED6F0AB4EEE00AF1EE0E
:1056A00010FA0BDC6A4800EBC40090ED010ADFED54
:1056B0006A0AB4EEE00AF1EE10FA42D2644830F819
:1056C000340000283DDD624830F83400B0F5E17F59
:1056D00037DA701CC6B25E4800EBC40090ED010AD8
:1056E000DFED5D0AB4EEE00AF1EE10FA09D2584897
:1056F00000EBC40090ED010A30EE080AB0EE408ADB
:1057000018E0534800EBC40090ED010ADFED510AA8
:10571000B4EEE00AF1EE10FA0CDD4D4800EBC400E7
:1057200090ED010ADFED4D0A30EE600A30EE080A16
:10573000B0EE408A464830F83400FA2801DA681C96
:10574000C5B2641CB4F5906FA0DB9FED450A4548D7
:1057500080ED000A2EB99FED3D0A434880ED000A16
:1057600065E0082D0ADD9FED410A3E4880ED000A04
:105770009FED360A3C4880ED000A58E09FED330A61
:10578000384880ED000AB5EEC08AF1EE10FA27DD48
:105790003748007828B99FED2D0A324880ED000A7D
:1057A00004E09FED2F0A2F4880ED000A3048007872
:1057B000022805D19FED2F0A2B4880ED000A36E024
:1057C0002B480078012805D1B6EE000A264880ED66
:1057D000000A2CE0B7EE080A234880ED000A26E014
:1057E0002348007828B99FED190A1E4880ED000A69
:1057F00004E09FED1B0A1B4880ED000A1C4800785E
:10580000022805D19FED1C0A174880ED000A0EE022
:1058100017480078012805D1BEEE000A124880ED35
:10582000000A04E0BFEE080A0F4880ED000A0E48A7
:1058300090ED001A1148D0ED000A0A4890ED000AD8
:10584000FCF746F9BDEC028B70BD000000000000C3
:10585000AC2E002000009643000070420000B443CC
:105860009A99993E1C020020240200209A9999BE20
:10587000CC010020DB0F493FDB0F49BF2002002095
:1058800070B500264FF6FF7500241BE0904830F8F5
:105890003400002815DD8E4830F83400B0F5C86FAC
:1058A0000FDA761C8A4830F83400A84209DA8848B2
:1058B00030F8345000EBC40090ED010A854880EDCB
:1058C000000A641CB4F5906FE0DB824890ED000A9A
:1058D000DFED810AB4EEE00AF1EE10FA07DD90ED9B
:1058E000000ADFED7E0A30EE600A80ED000A79489A
:1058F00090ED000A7A48D0ED000A30EE600AF2EE30
:10590000040AB4EEE00AF1EE10FA0EDC714890EDF4
:10591000000A7348D0ED000A30EE600AFAEE040A7D
:10592000B4EEE00AF1EE10FA10D26E480078401C96
:10593000C0B26C4908701E2818DD00200870654848
:1059400090ED000A664880ED000A0FE06548007897
:10595000401CC0B2634908700A2807DD00200870A7
:105960005C4890ED000A5E4880ED000A082E17DAC8
:105970005D480088282804DA5B480088401C5A49A2
:10598000088059480088282809DB9FED580A5848A4
:1059900080ED000A9FED550A564880ED000A8AE026
:1059A000002051490880524890ED000ADFED520A6C
:1059B000B4EEE00AF1EE10FA08DC90ED000ADFED3B
:1059C0004F0AB4EEE00AF1EE10FA2DD2B5F52F7FB2
:1059D0001DDA434890ED000ADFED490AB4EEE00A13
:1059E000F1EE10FA08DC90ED000ADFED460AB4EEA5
:1059F000E00AF1EE10FA0AD2394890ED000ADFED24
:105A0000420A20EE200A3B4880ED000A11E0DFED5B
:105A1000370A334890ED000AFCF760FEB1EE400A09
:105A2000344880ED000A04E09FED300A314880EDF3
:105A3000000A284890ED000ADFED340AB4EEE00ACF
:105A4000F1EE10FA08DC90ED000ADFED310AB4EE59
:105A5000E00AF1EE10FA17D2DFED2E0A00EE105A2E
:105A6000B8EE400AFBF7A2FFB1EE400A204880EDF5
:105A7000000A1B4890ED000ADFED230A20EE200A01
:105A80001C4880ED000A0AE0DFED220A00EE105A01
:105A9000B8EE400AFBF78AFF154880ED000A9FED3B
:105AA0001E1ADFED1E0A124890ED000A0BF010FAE4
:105AB0000F4880ED000A0F4890ED001A1848D0ED0D
:105AC000000A0B4890ED000AFCF702F870BD0000D8
:105AD000AC2E0020D8020020000034430000B44364
